:100000000C94FA000C9424010C9424010C94240107
:100010000C9424010C9424010C9424010C942401CC
:100020000C9424010C9424010C9424010C942401BC
:100030000C9424010C9424010C9424010C942401AC
:100040000C9424010C9424010C9424010C9424019C
:100050000C9424010C9424010C9424010C942A0780
:100060000C9424010C94F7060C941F060C942401A4
:100070000C9424010C9424010C9424010C9424016C
:100080000C9424010C9424010C9424010C9424015C
:100090000C94C4060C94E0050C9424010C943704D1
:1000A0000C9424010C9424010C9424010C9424013C
:1000B0000C9424010C9424010C9424010C9424012C
:1000C0000C9424010C9424010C9424010C949106AA
:1000D0000C94A1050C9424010C945E060C9462050A
:1000E0000C9424016C016F0162016601A601730189
:1000F00077017D01810185018B018F019301A601AB
:1001000099019D01A10100002200250028002B007B
:100110002E003100340002010000050108010B012E
:1001200005050505070508080808020202020A0A73
:100130000808040404040101010101010101030391
:10014000030303030303040707070C0C0C0C0C0C3C
:100150000C0C0202020206060606060606060B0B39
:100160000B0B0B0B0B0B010210202008081020407A
:10017000102040800201020108040201010204086B
:1001800010204080804020100804020180040201F9
:100190008040201008040201080402010102040842
:1001A0001020408001020408102040800000090A4D
:1001B00002080B0C0D0706030401000000000000FC
:1001C000000000000000000000000000000000002F
:1001D000000000000000000011100F0000000000EF
:1001E000000000000000000000000000000000000F
:1001F00000005E0811241FBECFEFD1E2DEBFCDBFED
:1002000012E0A0E0B2E0E6E3F2E100E00BBF02C0E2
:1002100007900D92AC32B107D9F725E0ACE2B2E01D
:1002200001C01D92A935B207E1F710E0CAEFD0E096
:1002300004C02197FE010E941009C93FD107C9F7E8
:100240000E9464080C94EB080C9400000F931F9319
:10025000CF93DF93C7E3D5E0E881F9810190F08186
:10026000E02D6DE0CE0109958C01E881F9810190C6
:10027000F081E02D6AE0CE010995800F911FDF919A
:10028000CF911F910F91089590E0FC01E455FE4F2E
:100290004491FC01EA59FE4F2491FC01E05EFE4FBF
:1002A0008491882309F460C0442309F44FC050E0CE
:1002B000FA013197E131F10508F048C0EE58FF4FDF
:1002C0000C941009909180009F7703C0909180005A
:1002D0009F7D909380003AC094B59F7702C094B5FB
:1002E0009F7D94BD33C09091B0009F7703C09091E3
:1002F000B0009F7D9093B00029C0909190009F77AF
:1003000007C0909190009F7D03C090919000977FCF
:10031000909390001BC09091A0009F7707C0909190
:10032000A0009F7D03C09091A000977F9093A000B4
:100330000DC0909120019F7707C0909120019F7D73
:1003400003C090912001977F90932001E82FF0E067
:10035000EE0FFF1FEA5FFE4FA591B4918FB7F8949F
:10036000EC91E22BEC938FBF089585ED8093BC0058
:100370008091BC0084FDFCCF10921105089561327C
:1003800098F420911105243089F46093ED04282F0E
:10039000ADECB4E0FC018E2F821B861718F481911E
:1003A0008D93F9CF80E0089581E0089582E008956B
:1003B0001092110581E0809313051092120584E1DB
:1003C0000E94440185E10E944401E9EBF0E0808154
:1003D0008E7F808380818D7F808388E48093B800C6
:1003E00085E48093BC000895089581E090E0309109
:1003F000C0042091BF04321710F480E090E0919582
:100400008195910908958091C0049091BF04891746
:1004100030F48F5F8093C00480E090E008958FEF08
:100420009FEF08958091BF0490E02091C004821B4B
:1004300091090895CF93DF93CB01EA01642F0E94C5
:10044000BF01CE01DF91CF910895CF93DF931F922B
:10045000CDB7DEB7698361E0CE0101960E94BF018E
:1004600081E090E00F90DF91CF9108950F931F935B
:10047000CF93DF93FC01A685B7858D01005C1F4FEC
:10048000E8018881998101968F739927AD014E5BB0
:100490005F4FEA012881398128173907D1F3E80134
:1004A00028813981A20FB31F6C93A685B785A05C04
:1004B000BF4F11969C938E93A689B7892C9181E0AA
:1004C00090E0078C02C0880F991F0A94E2F7822BF4
:1004D0008C9381E081A30488F589E02D808180647C
:1004E000808381E090E0DF91CF911F910F9108957B
:1004F000FC0181A1882329F0A489B5898C9186FF0C
:10050000FBCF11A20895FC01A485B585FD01E05C37
:10051000FF4F2081318132968081918128173907E0
:1005200079F080819181A80FB91F8C912081318150
:100530002F5F3F4F2F7333273183208390E008953F
:100540008FEF9FEF0895DC011C96ED91FC911D97B4
:10055000DF01A05CBF4F2D913C91119712968D91B8
:100560009C9111972817390739F08D919C91E80FCC
:10057000F91F808190E008958FEF9FEF0895FC01AF
:1005800024853585F901E05CFF4F808191813296A9
:1005900020813181821B930B8F739927089587E304
:1005A00095E00E94BF0283E194E00E94BF0289E6C9
:1005B00093E00E94BF028FEB92E00C94BF02FB011C
:1005C000E05CFF4F20813181DB01AE5BBF4F4D917D
:1005D0005C912F5F3F4F2F7333274217530741F032
:1005E00040815181DB01A40FB51F8C93318320839F
:1005F00008950895CF92DF92EF92FF920F931F9389
:10060000CF93DF936C01EB017B01E40EF51E00E05C
:1006100010E0CE15DF0561F06991D601ED91FC91F6
:100620000190F081E02DC6010995080F191FF1CF47
:10063000C801DF91CF911F910F91FF90EF90DF9054
:10064000CF900895789484B5826084BD84B581602C
:1006500084BD85B5826085BD85B5816085BDEEE6CA
:10066000F0E0808181608083E1E8F0E010828081A9
:1006700082608083808181608083E0E8F0E0808117
:1006800081608083E1EBF0E0808184608083E0EB37
:10069000F0E0808181608083E1E9F0E08081826028
:1006A0008083808181608083E0E9F0E080818160E7
:1006B0008083E1EAF0E080818260808380818160D4
:1006C0008083E0EAF0E0808181608083E1E2F1E014
:1006D000808182608083808181608083E0E2F1E0BC
:1006E000808181608083EAE7F0E08081846080839C
:1006F0008081826080838081816080838081806846
:1007000080831092C10008953FB7F8948091310220
:1007100090913202A0913302B091340226B5A89B89
:1007200005C02F3F19F00196A11DB11D3FBFBA2F83
:10073000A92F982F8827820F911DA11DB11DBC01E3
:10074000CD0142E0660F771F881F991F4A95D1F7A8
:100750000895CF92DF92EF92FF92CF93DF930E94A2
:100760008403EB0188EEC82E83E0D82EE12CF12C17
:100770000E9484036C1B7D0B683E7340C8F381E0CC
:10078000C81AD108E108F108C851DC4FC114D104DE
:10079000E104F10469F7DF91CF91FF90EF90DF90D2
:1007A000CF900895009799F0FC0101900020E9F79F
:1007B0003197AF01481B590BE0913705F09138058F
:1007C0000280F381E02DBC0187E395E0099480E08D
:1007D00090E008958F929F92AF92BF92EF92FF9216
:1007E0000F931F93CF93DF93CDB7DEB7A1970FB6CB
:1007F000F894DEBF0FBECDBF162F042F19A24230D2
:1008000008F40AE07E0121E2E20EF11C802E912C18
:10081000A12CB12C612FA50194010E94EE08029F2A
:100820001019112481E0E81AF1081A3014F4105D4F
:1008300001C0195CF7011083122F732FCA01232BFB
:10084000242B252B39F7C7010E94D203A1960FB69E
:10085000F894DEBF0FBECDBFDF91CF911F910F91F6
:10086000FF90EF90BF90AF909F908F9008951F9250
:100870000F920FB60F9211240BB60F922F933F9346
:100880004F935F936F937F938F939F93AF93BF9398
:10089000EF93FF938091B900887F803609F49CC064
:1008A00068F5883209F45BC090F4803109F454C0D3
:1008B00038F4882309F4EFC0883009F44DC0EFC044
:1008C000883109F44CC0803209F45DC0E8C080343E
:1008D00009F468C048F4803309F455C0883309F03E
:1008E000DEC080931005D1C0803509F44FC0883533
:1008F00009F45DC0883409F0D2C0CFC0883909F44A
:10090000C0C0A8F4883709F467C038F4883609F401
:1009100063C0803709F460C0C2C0883809F4B1C030
:10092000803909F45FC0803809F0B9C05BC0803BF2
:1009300009F481C038F4803A09F466C0883A09F4B1
:100940007AC0ADC0803C09F4A0C0883C09F49DC0C9
:10095000883B09F483C0A3C08091360510C09091F4
:10096000350580913405981770F5E091350581E0E3
:100970008E0F80933505F0E0EC5EFA4F8081809316
:10098000BB0085EC7FC08093100587C0E0913505E2
:1009900081E08E0F809335058091BB00F0E0EC5E26
:1009A000FA4F8083909135058091340567C0E091BE
:1009B000350581E08E0F809335058091BB00F0E016
:1009C000EC5EFA4F808380911305811166C081E04F
:1009D0008093120584EA5AC083E080931105109237
:1009E0000F05CFCF80910F05803208F04AC0E0910B
:1009F0000F0581E08E0F80930F058091BB00F0E022
:100A0000E151FB4F8083BDCF80910F05803230F4E0
:100A1000E0910F05F0E0E151FB4F10820E94B5011B
:100A200060910F0570E08FEE94E0E0E0F0E0099552
:100A300010920F052AC084E0809311051092EE04F5
:100A40001092ED04E0E0F0E009958091ED04811151
:100A500005C081E08093ED041092CD04E091EE0496
:100A600081E08E0F8093EE04F0E0E353FB4F808132
:100A70008093BB009091EE048091ED04981708F4E8
:100A800080CF85E88093BC000AC085EC8093BC00D1
:100A90001092110504C0109210050E94B501FF913B
:100AA000EF91BF91AF919F918F917F916F915F91E6
:100AB0004F913F912F910F900BBE0F900FBE0F9053
:100AC0001F9018951F920F920FB60F9211240BB61C
:100AD0000F922F933F938F939F93EF93FF932091C8
:100AE0007702309178028091790290917A022817EA
:100AF000390731F4809131018F7D8093310114C029
:100B0000E0917902F0917A02E95CFD4F20818091B9
:100B1000790290917A0201968F73992790937A02C5
:100B20008093790220933601FF91EF919F918F91ED
:100B30003F912F910F900BBE0F900FBE0F901F9003
:100B400018951F920F920FB60F9211240BB60F92A9
:100B50002F933F938F939F93EF93FF9320912103C4
:100B600030912203809123039091240328173907A1
:100B700031F48091D1008F7D8093D10014C0E09139
:100B80002303F0912403EF51FD4F20818091230333
:100B90009091240301968F73992790932403809357
:100BA00023032093D600FF91EF919F918F913F9166
:100BB0002F910F900BBE0F900FBE0F901F901895A6
:100BC0001F920F920FB60F9211240BB60F922F9314
:100BD0003F938F939F93EF93FF932091CB0330919B
:100BE000CC038091CD039091CE032817390731F4BF
:100BF0008091C9008F7D8093C90014C0E091CD031E
:100C0000F091CE03E557FC4F20818091CD03909168
:100C1000CE0301968F7399279093CE038093CD03D3
:100C20002093CE00FF91EF919F918F913F912F9153
:100C30000F900BBE0F900FBE0F901F9018951F9234
:100C40000F920FB60F9211240BB60F922F933F9372
:100C50008F939F93EF93FF932091750430917604C7
:100C600080917704909178042817390731F48091A6
:100C7000C1008F7D8093C10014C0E0917704F09192
:100C80007804EB5CFB4F208180917704909178048D
:100C900001968F739927909378048093770420931B
:100CA000C600FF91EF919F918F913F912F910F90EF
:100CB0000BBE0F900FBE0F901F9018951F920F92B2
:100CC0000FB60F9211240BB60F922F933F934F93B1
:100CD0005F936F937F938F939F93AF93BF93EF93A4
:100CE000FF938091300182FD07C0809136016BE750
:100CF00072E00E94DF0202C080913601FF91EF9105
:100D0000BF91AF919F918F917F916F915F914F9123
:100D10003F912F910F900BBE0F900FBE0F901F9021
:100D200018951F920F920FB60F9211240BB60F92C7
:100D30002F933F934F935F936F937F938F939F93E3
:100D4000AF93BF93EF93FF938091D00082FD07C0D4
:100D50008091D60065E273E00E94DF0202C08091BC
:100D6000D600FF91EF91BF91AF919F918F917F91AD
:100D70006F915F914F913F912F910F900BBE0F900C
:100D80000FBE0F901F9018951F920F920FB60F92E3
:100D900011240BB60F922F933F934F935F936F9352
:100DA0007F938F939F93AF93BF93EF93FF93809124
:100DB000C80082FD07C08091CE006FEC73E00E94F6
:100DC000DF0202C08091CE00FF91EF91BF91AF9101
:100DD0009F918F917F916F915F914F913F912F9153
:100DE0000F900BBE0F900FBE0F901F9018951F9283
:100DF0000F920FB60F9211240BB60F922F933F93C1
:100E00004F935F936F937F938F939F93AF93BF9312
:100E1000EF93FF938091C00082FD07C08091C600D0
:100E200069E774E00E94DF0202C08091C600FF9172
:100E3000EF91BF91AF919F918F917F916F915F9152
:100E40004F913F912F910F900BBE0F900FBE0F90BF
:100E50001F9018951F920F920FB60F9211242F9387
:100E60003F938F939F93AF93BF9380912D02909167
:100E70002E02A0912F02B091300230912C0223E07B
:100E8000230F2D3720F40196A11DB11D05C026E8C2
:100E9000230F0296A11DB11D20932C0280932D02D9
:100EA00090932E02A0932F02B093300280913102D2
:100EB00090913202A0913302B09134020196A11DAB
:100EC000B11D8093310290933202A0933302B0930C
:100ED0003402BF91AF919F918F913F912F910F90CD
:100EE0000FBE0F901F901895E1ECF4E01382128270
:100EF00088EE93E0A0E0B0E084839583A683B78377
:100F000084E192E0918380830895CF92DF92EF9203
:100F1000FF92E7E3F5E01382128288EEC82E83E0A9
:100F2000D82EE12CF12CC482D582E682F78264E0CF
:100F300072E07183608389E794E09587848785E315
:100F400094E09787868785EC90E0918B808B84EC8A
:100F500090E0938B828B80EC90E0958B848B81EC7E
:100F600090E0978B868B82EC90E0918F808F86EC5F
:100F700090E0938F828F44E0448F33E0358F27E0F9
:100F8000268F95E0978F81E080A3E3E1F4E0138260
:100F90001282C482D582E682F78271836083AFECCD
:100FA000B3E0B587A487ABE8B3E0B787A687ADEC1D
:100FB000B0E0B18BA08BACECB0E0B38BA28BA8EC13
:100FC000B0E0B58BA48BA9ECB0E0B78BA68BAAECF4
:100FD000B0E0B18FA08FAEECB0E0B38FA28F448FA2
:100FE000358F268F978F80A3E9E6F3E01382128274
:100FF000C482D582E682F78271836083A5E2B3E082
:10100000B587A487A1EEB2E0B787A687A5EDB0E0CB
:10101000B18BA08BA4EDB0E0B38BA28BA0EDB0E0C0
:10102000B58BA48BA1EDB0E0B78BA68BA2EDB0E0A1
:10103000B18FA08FA6EDB0E0B38FA28F448F358F14
:10104000268F978F80A3EFEBF2E013821282C48287
:10105000D582E682F782718360836BE772E07587E1
:10106000648767E372E07787668765E371E0718B79
:10107000608B64E371E0738B628B60E371E0758B6E
:10108000648B61E371E0778B668B62E371E0718F53
:10109000608F66E371E0738F628F448F358F268F88
:1010A000978F80A3FF90EF90DF90CF900895E5E3B6
:1010B000F2E082E0808383E0818308950E947407D8
:1010C0000E9485070C9457080E942203E0914B056B
:1010D000F0914C0581E090E09C010090570502C022
:1010E000220F331F0A94E2F72083E0914705F09125
:1010F00048051082E0914905F0914A0520E12083DE
:1011000010925805E0914D05F0914E0540819C01EB
:101110000090530502C0220F331F0A94E2F7242BDC
:101120002083E0914D05F0914E0540819C01009097
:10113000540502C0220F331F0A94E2F7242B2083A8
:10114000E0914D05F0914E0540819C0100905505C0
:1011500002C0220F331F0A94E2F7242B2083E09170
:101160004D05F0914E0520810090560502C0880F74
:10117000991F0A94E2F78095822380830E94A90335
:1011800080E292E00E94D2030E9426011092C004E5
:101190001092BF041092BD041092BE040E94D801A8
:1011A0006091350270E080E090E04AE00E94EA033E
:1011B0000E9426010E94A9036091360270E080E03F
:1011C00090E04AE00E94EA030E9426010E94A903DF
:1011D0000E94CF02D5CFF8940C941909A1E21A2EDF
:1011E000AA1BBB1BFD010DC0AA1FBB1FEE1FFF1FCB
:1011F000A217B307E407F50720F0A21BB30BE40B1B
:10120000F50B661F771F881F991F1A9469F7609561
:101210007095809590959B01AC01BD01CF0108951B
:10122000EE0FFF1F0024001C0BBE0790F691E02D6F
:061230000994F894FFCFC1
:10123600000000003602FA02BF028302A30278020F
:101246000000000025021A0212020302F501F40151
:0C12560048656C6C6F20776F726C640050
:00000001FF
